:100000000010002065010000910100009101000036
:100010009101000091010000910100009101000098
:100020009101000091010000910100009101000088
:1000300091010000910100009101000025280000BD
:100040003510000055510000B5530000910100002B
:100050005154000091010000B95100001D540000EE
:100060009101000091010000455200009101000043
:10007000B9520000910100009101000091010000BF
:1000800091010000910100009101000010B5064CA3
:100090002378002B07D1054B002B02D0044800E049
:1000A00000BF0123237010BDC0000020000000002D
:1000B0004470000008B5084B002B03D007480849DE
:1000C00000E000BF07480368002B00D108BD064BC5
:1000D000002BFBD09847F9E70000000044700000B7
:1000E000C4000020BC00002000000000164B002BC4
:1000F00000D1144B9D46402292029A1A924600214A
:100100008B460F461348144A121A06F034F90F4B67
:10011000002B00D098470E4B002B00D098470020B2
:10012000002104000D000D48002802D00C4800E01A
:1001300000BF06F0F1F82000290005F0D3FE06F01C
:10014000D5F8C046000008000010002000000000A4
:1001500000000000C000002084010020000000001A
:1001600000000000064880470649074A074B9B1AD3
:1001700003DD043BC858D050FBDCFFF7B7FF00009D
:10018000A90200005070000000000020C000002004
:10019000FEE7C04680B582B000AF00F01FF8031C38
:1001A0007B60084B5B680F2213401A1C7B68D340AE
:1001B0007B60054B7A681A607B68181CBD4602B0EC
:1001C00080BDC04600800C400800002080B500AF14
:1001D000014B181CBD4680BD00366E0180B582B053
:1001E00000AF294BDA6AF0239B01134080225201B1
:1001F00093420CD080229201934204D080221201BB
:10020000934208D00BE0214B1B687B6036E08023D3
:100210001B027B6032E01E4B1B687B602EE01A4B9A
:10022000DA68E023DB00134080229200934218D06A
:1002300080229200934206D8002B18D080225200D0
:10024000934211D016E0C0229200934206D0802241
:10025000D20093420ED10F4B7B600EE00E4B7B60C1
:100260000BE00E4B7B6008E00D4B7B6005E00D4B17
:100270007B6002E000237B60C046C0467B68181CA0
:10028000BD4602B080BDC04600800C400400002086
:1002900000000020406F4001809FD500C0D8A7001B
:1002A00040B56400804F120080B500AFBD4680BDF0
:1002B00080B500AF80231B02181CBD4680BDC04620
:1002C00080B500AFFA239B00181CBD4680BDC04618
:1002D00080B500AF024B1B68181CBD4680BDC046F0
:1002E0000400002080B588B000AF7860081C111CA5
:1002F000FB1C021C1A70BB1C0A1C1A70BB1C1B784E
:10030000002B04D010237B61404BBB6103E0002332
:100310007B613F4BBB617B685B6BBA6913403B61A0
:100320000023FB617B683B4A934206D13A4BFB605A
:10033000FB1C1B78062B5BD800E063E09A00374B70
:10034000D3181B689F46FB681A68FE23DB01134025
:10035000FA691343FB61FB681B687F221340FA694B
:100360001343FB6147E0FB681A68FE23DB0513407B
:100370001B0E1B02FA691343FB61FB681A68FE231C
:10038000DB0313401B0CFA691343FB6133E0FB688A
:1003900004331A68FE23DB011340FA691343FB613F
:1003A000FB6804331B687F221340FA691343FB6127
:1003B00021E0FB6804331A68FE23DB0513401B0EA3
:1003C0001B02FA691343FB61FB6804331A68FE23BE
:1003D000DB0313401B0CFA691343FB610BE0FB6862
:1003E00008331B687F221340FA691343FB6102E064
:1003F0000023FB61C0467B69FA699A403B691A4356
:100400007B685A63BD4608B080BDC046FFFF808050
:100410008080FFFF00200040B481E00FB063000047
:1004200090B585B000AF786039600B23FB183A684F
:1004300012791A700B23FB181B78002B09D10B23A0
:10044000FC181F4B181C002100F08CF8031C2370B3
:100450000AE01B4B181C002100F084F8FA23DB0192
:10046000181C002100F07EF87B680A225A603B6865
:100470001B781A063B68DB781904FE23DB030B406C
:100480001A430B23FB181B781902FE23DB010B40D8
:100490001A433B685B781B0113433A689278134315
:1004A000FB603B685B79002B03D0FB680822134399
:1004B000FB607B68FA681A60BD4605B090BDC04617
:1004C000405DC60080B584B000AF786039607B685D
:1004D00002225A603B689B787A68101C191C002223
:1004E000FFF700FF3B681B781A073B685B781B052A
:1004F0001A433B681B791B0213431A1C3B68DB78C9
:100500001B011343FB603B689B79002B04D0FB6805
:10051000802252041343FB603B68DB79002B03D03D
:10052000FB6804221343FB603B685B79002B03D01C
:10053000FB6802221343FB603B681B7A002B03D04D
:10054000FB6801221343FB603B689B781B041A1C69
:10055000FB681343FB607B68FA68DA60BD4604B051
:1005600080BDC04680B584B000AF786039607B68DC
:10057000154A934202D9144B7B6006E07B68134A0C
:10058000934202D8FA23DB017B603B68002B05D144
:100590000F4B181C00F004FB031C3B603A687B689F
:1005A000D318013B181C796805F000FD031CFB60A3
:1005B000FB68002B02D0FB68013BFB60FB68DBB2F1
:1005C000181CBD4604B080BD405DC600FF7C000025
:1005D0004081040080B582B000AF78607B680A2259
:1005E0005A607B680022DA607B6800221A617B68AF
:1005F000F82252031A607B6800225A617B680A4A1B
:100600001A627B68094ADA637B68181C00210022A1
:10061000FFF768FE7B68181C00210122FFF762FECD
:10062000BD4602B080BDC04603030000470700007E
:1006300080B582B000AF78607B68002B0AD10F4B89
:10064000181C00F0ADFA031C7B607B68002B01D105
:1006500001237B607B680A4A944663447B607B6825
:10066000181C084905F0A2FC031C7B607B68DBB208
:10067000013BDBB2181CBD4602B080BD40810400C6
:100680003F420F0040420F0080B586B000AFF860D7
:10069000B9607A60FB681B687B61BB6801229A4085
:1006A000131CDB431A1C7B691A407B68012119402B
:1006B000BB6899400B1C1A43FB681A60BD4606B024
:1006C00080BDC04680B582B000AF786039607B687D
:1006D0001A683B68DA40131C01221340181CBD46FF
:1006E00002B080BD80B584B000AF78607B68002B1D
:1006F00005D07A6880231B029A4200D8C0467868E9
:1007000005F0D6FD031C1A1C1F239B1AFB60FB6817
:10071000181CBD4604B080BD80B500AF034BDB6C38
:100720001B0EDBB2181CBD4680BDC046B081E00F79
:1007300080B582B000AF224B5A69E023DB00134042
:100740008022920093421ED080229200934206D8CB
:10075000002B26D08022520093421FD027E0C022D7
:100760009200934204D0E022D20093421CD01EE0BB
:10077000FFF7D2FF031E122B02D9124B7B6019E048
:10078000114B7B6016E0FFF7C7FF031E122B02D947
:100790000E4B7B600EE00E4B7B600BE00D4B7B60E5
:1007A00008E00D4B7B6005E00C4B7B6002E0002312
:1007B0007B60C0467B68181CBD4602B080BDC04649
:1007C00000800C40804F120040420F0040B5640092
:1007D000C0CF6A00C0D8A700809FD500406F4001FD
:1007E00090B583B000AFFC1C0E4B181C00F06EFAE5
:1007F000031C2370FB1C1B78072B06D0092B09D187
:10080000FFF7ECFC031C7B6007E0FFF791FF031C84
:100810007B6002E000237B60C0467B68181CBD46FD
:1008200003B090BD06000C0080B584B000AF7860C6
:100830003960184BDA6B0B23FB18511E8A411A7072
:10084000144B154ADA63134B5B6807221340FB60B5
:100850007B68124A934202D80023FB6005E07B6864
:100860000F4A934201D80123FB600A4B094A5268A0
:1008700007218A43111CFA680A435A600B23FB18AC
:100880001B78002B02D0034B0022DA63BD4604B074
:1008900080BDC04600000C40711B00000024F40025
:1008A0000048E80180B500AFFFF790FC031C181C5E
:1008B0000021FFF7B9FFBD4680BDC04680B582B0BC
:1008C00000AF786039607A683B68101C191CFFF72C
:1008D000ABFFBD4602B080BD80B584B000AF78608C
:1008E0000023BB607B68304A934203D02F4A934277
:1008F00000D000E0C0467B68181C00F0E7F9031C3C
:10090000FB607B68284A934203D0284A934206D072
:100910000CE0274B9B6A03221340FB6006E0244B4C
:100920009B6A0C2213409B08FB60C046FB68012BAE
:1009300005D014D3022B07D0032B0AD02BE0FFF7EE
:10094000B7FC031CBB6029E0FFF7C2FC031CBB60C3
:1009500024E0FFF71FFC031C5B08BB601EE00023C4
:10096000BB607B68104A934203D07B680F4A934276
:1009700010D10F4B9A6A7B680B498B4201D110232F
:1009800000E01423DA40131E04D0FFF799FC031C87
:10099000BB6003E002E00023BB60C046BB68181CDC
:1009A000BD4604B080BDC04602001A0003001C0012
:1009B00000800C4080B582B000AF7860074B5B6D63
:1009C0000122134000D005E0C046044B1B6D7A683D
:1009D0001340FAD1BD4602B080BDC04600800C4035
:1009E00080B584B000AF786039607B681B090F2246
:1009F0001340FB60FB68052B21D002D8042B05D0E7
:100A000073E0062B3FD0072B56D06EE03B68002BDF
:100A100005D03A6880239B009A4200D8C0463B68C4
:100A2000181CFFF75FFE031C3B60314B304A926895
:100A30000F218A43111C3A680A439A6055E03B68CB
:100A4000002B05D03A6880239B009A4200D8C0460C
:100A5000FFF728FF3B68181CFFF744FE031C3B60B0
:100A6000234B234A52680F218A43111C3A680A43D8
:100A70005A60FFF78FFB031CBB60BB68181C00218A
:100A8000FFF71CFF31E07B681A4A934200D012E066
:100A90000420FFF78FFF3B68181CFFF723FE031CA1
:100AA0003B60134B124A926E0F218A43111C3A6825
:100AB0000A439A66C04618E07B680F4A934200D00A
:100AC00012E04020FFF776FF3B68181CFFF70AFE94
:100AD000031C3B60064B064A126F03218A43111C1C
:100AE0003A680A431A67C046C046BD4604B080BD96
:100AF00000800C40600610007007160080B586B0BC
:100B000000AF78600A1CFB1C1A7000233B617B68F5
:100B10001B0A0F2213400A2B30D89A00194BD31806
:100B20001B689F46184B7B6112E0184B7B610FE0FE
:100B3000174B7B610CE0174B7B6101233B6107E0A6
:100B4000154B7B6110233B6102E0144B7B61C04677
:100B50007B681B0B1F221340FB603B69002B03D0FB
:100B60003B69181CFFF726FFFB1C1B787969FA68A4
:100B7000081C111C1A1CFFF787FD00E0C046BD468B
:100B800006B080BDCC63000040800C4008800C4063
:100B900044800C4058800C4060800C4078800C40B1
:100BA00080B584B000AF78607A68F8239B03134067
:100BB000E0221203934200D175E0E0221203934237
:100BC00013D880229202934237D08022920293421D
:100BD00002D8002B1FD06BE08022D20293421FD09C
:100BE000C0221203934259D062E0B02252039342D2
:100BF00045D0B0225203934204D88022520393423C
:100C000027D055E0D022520393421BD0E02252035A
:100C100093422DD04CE0FFF7E1FA031CFB604AE061
:100C2000FFF7DCFA031CFB60254B9B680F22134087
:100C30001A1CFB68D340FB603DE0FFF7ABFA031CD6
:100C4000FB6038E01F4B181CFFF746FE031CFB60DF
:100C500031E01C4B181CFFF73FFE031CFB60184BD8
:100C60009B6E0F2213401A1CFB68D340FB6022E0EE
:100C7000154B181CFFF730FE031CFB601BE0124BEA
:100C8000181CFFF729FE031CFB600D4B1B6F032292
:100C900013401A1CFB68D340FB600CE0FFF7A0FD7B
:100CA000031CFB6007E0FFF743FD031CFB6002E051
:100CB0000023FB60C046FB68181CBD4604B080BD25
:100CC00000800C4002001A0003001C0080B584B0B4
:100CD00000AF78600F23FB1801221A707B680F2287
:100CE0001340BB60BB68022B30D002D8012B06D06A
:100CF0007DE0032B50D0062B00D173E077E0424B10
:100D0000DA6AF0239B0113408022520193420DD0F6
:100D100080229201934204D08022120193420AD091
:100D20000EE00F23FB1802221A700EE00F23FB18AF
:100D300003221A7009E00F23FB1804221A7004E042
:100D40000F23FB1805221A70C04655E02E4B9B6AF4
:100D500003221340022B08D0032B0BD0012B0ED102
:100D60000F23FB1803221A7015E00F23FB18022231
:100D70001A7010E00F23FB1806221A700BE0224BAA
:100D80009A6A80235B02134004D00F23FB180A22C7
:100D90001A7000E0C0462FE01B4B9B6A0C221340E8
:100DA000082B08D00C2B0BD0042B0ED10F23FB18D3
:100DB00003221A7015E00F23FB1802221A7010E0AC
:100DC0000F23FB1806221A700BE00F4B9A6A802340
:100DD0005B03134004D00F23FB180A221A7000E0B3
:100DE000C04609E00F23FB1807221A7004E00F2306
:100DF000FB1800221A70C0460F23FB181B78181C22
:100E0000BD4604B080BDC04600800C4080B588B0AF
:100E100000AF78600A1CFB1C1A700323FB611B23C4
:100E2000FB1803221A7000233B617B680F221340DA
:100E3000FB60FB68012B05D000D286E0032B00D9B4
:100E400083E03CE0FB1C1B780A2B00D97FE09A0072
:100E5000424BD3181B689F460423FB611B23FB18DE
:100E600000221A7014E00323FB611B23FB180122EC
:100E70001A700DE00223FB611B23FB1802221A707B
:100E800006E00123FB611B23FB1803221A70C046F6
:100E90001B23FB181B78181C0121012200F06AF8A3
:100EA000FFF700FD2E4BFA695A62FFF773F9031C36
:100EB000BB60BB68181C0021FFF700FD4AE0FB1C6B
:100EC0001B780A2B45D89A00264BD3181B689F46DF
:100ED00000237B611DE000200121012200F04AF87F
:100EE00002237B6115E001200121012200F042F87C
:100EF00001237B610DE01C4B181C02210122FFF72E
:100F0000C3FB03237B6104E000237B6101233B617E
:100F1000C046FB68022B0BD1114B114A926A134950
:100F200011407A6911433A6912040A439A6211E046
:100F30000B4B0B4A926A0E4911407A699200114399
:100F40003A6912050A439A6204E0C04602E0C046CC
:100F500000E0C046BD4608B080BDC046F863000052
:100F600000800C402464000040800C40FCFFFEFF29
:100F7000F3FFEFFF90B587B000AF041C081C111CF5
:100F8000FB1D221C1A70BB1D021C1A707B1D0A1C43
:100F90001A70FB1D1B78042B42D89A00224BD318E1
:100FA0001B689F4601233B610223FB6001237B6199
:100FB0001DE004233B610823FB6003237B6116E0F3
:100FC00010233B612023FB6005237B610FE040235E
:100FD0003B618023FB6007237B6108E080235B008B
:100FE0003B6180239B00FB6009237B61C046BB1DE6
:100FF0001B78002B10D00D4B3A691A627B1D1B78B1
:10100000002B0ED0C0460A4A7B69101C191CFFF742
:1010100059FB031EF7D004E0044BFA681A6200E0A3
:10102000C046BD4607B090BD5064000000800C4033
:101030002C800C4090B58BB000AF314A80235B010F
:10104000D358BB612E4A2F4BD258BB691340BB61AA
:101050002B4B9B6B7B61BB697A6913403B6200231E
:10106000FB6147E000237B6239E03B6A01221340C9
:101070002FD0234B9B683B6101227B6A9A40131C53
:10108000FB601F49204AFB688B507B6A1B013A6951
:10109000D318DB68BB60BB68002B1AD0BB681B7A17
:1010A0007B60BB681B7A01225340DAB2BB681A72BC
:1010B000BB681B68002B0CD0BB681C68796A7B6816
:1010C0005A1E9341DAB2BB685B68081C111C1A1CDB
:1010D000A0473B6A5B083B627B6A01337B623B6AE9
:1010E000002BC2D17B69DB43BA6913403B62FB69C9
:1010F0000133FB61FB69012BB4DDBD460BB090BD34
:1011000000200C400C1000000810000080B500AF5B
:10111000FFF740F8BD4680BD80B500AF024A84238A
:101120000021D150BD4680BD00800C4080B500AF8D
:10113000024A84230249D150BD4680BD00800C4044
:101140000E58000080B584B000AF021CFB1D1A7061
:10115000FB1D1B78002B0BD12D4BDA6A2D4B1A602F
:101160000120FFF7B3FD031C1A1C2B4B1A704BE038
:10117000FB1D1B78012B47D1254A8423D35801221C
:101180001340FB60FFF7D2FF0023BB60214B1B68BD
:1011900001221340BA681343BB601E4B1B68102228
:1011A0001340BA681343BB601A4B1B6840221340BC
:1011B000BA681343BB60174B1B6804221340BA681C
:1011C0001343BB60134B1A6880235B001340BA685B
:1011D0001343BB600E4BBA681A620F4B1B78052B8A
:1011E00005D00D4B1B780120191CFFF70FFE094B92
:1011F0001B680122134002D1054B02221A62FB68D0
:10120000002B01D0FFF788FFBD4604B080BDC0466B
:1012100000800C40DC000020E000002080B584B09D
:1012200000AF021CFB1D1A70FB1D1B78002B02D0A7
:101230000020FFF787FF124A8423D358012213406E
:10124000FB60FFF773FF0E4BA02292001A62FB684F
:10125000002B01D0FFF760FF0A4B0A4A12690421F4
:101260000A431A6130BFFB1D1B78002B03D00120FD
:10127000FFF768FF01E0FFF749FFBD4604B080BDFE
:1012800000800C4000ED00E080B586B000AFF86053
:10129000B9607A60FB681B687B61BB6801229A4079
:1012A000131CDB431A1C7B691A407B68012119401F
:1012B000BB6899400B1C1A43FB681A60BD4606B018
:1012C00080BDC04680B584B000AFF860B9607A6078
:1012D000FB681B68BA68D2431A407B681A43FB68F4
:1012E0001A60BD4604B080BD80B582B000AF021C5C
:1012F0003960FB1D1A70FB1D1B78002B0DD0FB1DE8
:101300001B78012B09D0FB1D1B78022B05D0FB1D80
:101310001B78032B01D0FB1D1B780949FB1D1A7894
:101320003B6801209840031C181C131CDB009B1811
:101330009B00CB1810335860BD4602B080BDC0463C
:101340000060004080B582B000AF021C3960FB1D18
:101350001A70FB1D1B78002B0DD0FB1D1B78012B79
:1013600009D0FB1D1B78022B05D0FB1D1B78032B1E
:1013700001D0FB1D1B780949FB1D1A783B68012031
:101380009840031C181C131CDB009B189B00CB18F7
:1013900010331860BD4602B080BDC04600600040FA
:1013A00080B586B000AFB9607A60191C0F23FB18B6
:1013B000021C1A700E23FB180A1C1A7000237B6192
:1013C0000F23FB181B78002B11D00F23FB181B7861
:1013D000012B0CD00F23FB181B78022B07D00F23F7
:1013E000FB181B78032B02D00F23FB181B787B689C
:1013F000072B11D87B689B001A1C07239340191CEC
:101400000F23FB181B787A68920093401A1C214B1B
:10141000181CFFF757FF13E07B68083B7B617B6973
:101420009B001A1C07239340191C0F23FB181B78E1
:101430007A69920093401A1C174B181CFFF742FF61
:101440000E23FB181B7815497A68081C111C1A1CFE
:10145000FFF71AFF2023FB181B7811497A68081C34
:10146000111C1A1CFFF710FF0E4A7B6801219940DE
:101470000B1C191C8E235B00D1502423FB181B78F6
:1014800009497A68081C111C1A1CFFF7FDFEBD46AD
:1014900006B080BD0061004004610040086100406A
:1014A0000C6100400060004010610040B0B584B0A5
:1014B00000AFB960111C7B600F23FB18021C1A706F
:1014C0000E23FB180A1C1A700F23FB181B78002B25
:1014D00011D00F23FB181B78012B0CD00F23FB1806
:1014E0001B78022B07D00F23FB181B78032B02D08D
:1014F0000F23FB181B780E23FB181B78002B13D02F
:101500007B68002B08D00F23FB181A78BB68101CCF
:10151000191CFFF717FF07E00F23FB181A78BB68A9
:10152000101C191CFFF7E0FEBB68072B22D8344CB7
:101530000F23FB181A7832480F23FB1819780B1C5D
:10154000DB005B189B00C3185B68B9688900081C46
:101550000F218140C9430B400E2179180978B868E2
:10156000800081401943131CDB009B189B00E3188B
:10157000596029E0224C0F23FB181A7820480F23CA
:10158000FB1819780B1CDB005B189B00C318083391
:101590001B68B9681B48844661448900081C0F21F8
:1015A0008140C9430B400E2179180978B868154D60
:1015B000AC466044800081401943131CDB009B183B
:1015C0009B00E318083319600E23FB181B78002BCF
:1015D00013D17B68002B08D00F23FB181A78BB6847
:1015E000101C191CFFF7AEFE07E00F23FB181A783A
:1015F000BB68101C191CFFF777FEBD4604B0B0BDD8
:1016000000600040F8FFFF3F80B586B000AFF86093
:10161000B9607A60FB681B687B61BB6801229A40F5
:10162000131CDB431A1C7B691A407B68012119409B
:10163000BB6899400B1C1A43FB681A60BD4606B094
:1016400080BDC04680B584B000AFF860B9607A60F4
:10165000FB681B68BA68D2431A407B681A43FB6870
:101660001A60BD4604B080BD90B589B000AFF86087
:10167000B9607A601A1CFB1C1A707B68002B00D1C1
:1016800066E0FB681B68344A1A40FB681A60FA6817
:10169000FB1C1B781B021C1CC0239B00101C191C6C
:1016A000221CFFF7CFFFBB68002B05D12B4B181C6A
:1016B000FFF776FA031CBB6001235B42BB61FB684A
:1016C0001B680222134012D0FB1C1B78012B07D091
:1016D000022B08D0002B00D01AE0214BBB6105E0A3
:1016E000204BBB6102E0204BBB61C04610E0FB1CFD
:1016F0001B78012B06D0022B07D0002B08D11B4BE7
:10170000BB6105E01A4BBB6102E01A4BBB61C046EE
:10171000FB1C1B78184AD35C7B617B689B00BA6812
:10172000D11A7B697A685343081C191C04F03EFCEB
:10173000031C013BFB61FB681B680222134004D0C1
:10174000FB69002B01D10123FB61FA69FB681A6177
:10175000BD4609B090BDC046FFFCFFFF40810400BC
:1017600040164000C0D8A7008050740180841E003D
:1017700040548900002D31016464000080B582B0BE
:1017800000AF786039607B6800225A637B68114A39
:101790001A637A683B685B78002B01D0002300E075
:1017A0000123101C01211A1CFFF72EFF3B6859680A
:1017B0003B689A683B681B7B7868FFF755FF7A683F
:1017C0003B681B78101C00211A1CFFF71DFFBD464B
:1017D00002B080BDCFFF010080B588B000AF786057
:1017E0007B68BD4A934205D1BC4BBB61BB699B681A
:1017F0007B6101E0FC23EBE17B689B6A3B613A691A
:10180000C023DB00134014D03A6980239B001340AF
:1018100003D0BB69FD225A7007E03A698023DB00E0
:10182000134002D0BB69FE225A70BB6909221A70AC
:10183000BAE1BB691B78082B00D9ADE19A00A84B2F
:10184000D3181B689F467B695B881A1C10231340C2
:101850000AD07B691B881B0A9BB21A1C0623134003
:10186000F0221343FB610FE07B691B881A1CFE23E7
:101870001340FB617B695B881A1C0223134003D071
:10188000FB6901221343FB61BB6901221A707B686B
:10189000FA695A627B6801225A6085E13B698022BD
:1018A00013400CD07B6880221A63BB69FF225A70F8
:1018B000BB6908221A707B6802225A6030E03B69DB
:1018C000402213402CD07B6840221A637B695B88DE
:1018D0001A1C102313400AD0BB6902221A707B69BC
:1018E0001B881A1CFF231A407B685A6218E07B6928
:1018F0005B881A1C022313400ED0BB6907221A70A2
:10190000BB691B797A69DB00D3181B89012B07D1CE
:101910007B6808225A6047E1BB6905221A7042E1E0
:1019200042E13B69802213400CD07B6880221A631D
:10193000BB69FF225A70BB6908221A707B680222B9
:101940005A6014E03B694022134010D07B6840226B
:101950001A637B695B881A1C0223134003D0BB699E
:1019600003221A701FE1BB6905221A701BE11BE1FB
:101970007B695B881A1C102313400AD07B691B8883
:101980001B0A9BB21A1C06231340F0221343FB616F
:1019900005E07B691B881A1CFE231340FB617B69F1
:1019A0005B881A1C0423134003D0FB6901221343F4
:1019B000FB61BB6904221A707B6801225A607B6854
:1019C000FA695A62F0E03B69802213400CD07B68D0
:1019D00080221A63BB69FF225A70BB6908221A7001
:1019E0007B6802225A6014E03B694022134010D009
:1019F0007B6840221A637B695B881A1C04231340AE
:101A000003D0BB6907221A7003E0BB6905221A7074
:101A1000C9E0C9E0BB695A88BB691B797969DB00F9
:101A2000CB181B899A4224D3BB6900225A80BB6918
:101A30001B790133DAB2BB691A717B695B881A1CA6
:101A40000423134003D0BB6903221A70ABE07B6907
:101A50005B881A1C0123134003D1BB691B79012B3E
:101A600006D9BB6908221A707B6802225A609BE083
:101A700099E0BB691B797A69DB00D3185A68BB69A6
:101A80005B88591C88B2B9694880D3181B781A1C26
:101A90007B685A62BB6906221A7085E03B69802226
:101AA00013400CD07B6880221A63BB69FF225A70F6
:101AB000BB6908221A707B6802225A600AE03B69FF
:101AC0004022134006D07B6840221A63BB6905227E
:101AD0001A7068E068E0C04600A00040E400002002
:101AE000686400003B692022134046D0BB691B7923
:101AF0007A69DB00D3181B89FB607B68DA690B23EA
:101B0000FB181A70BB695B881A1EFB689A4210D2D8
:101B1000BB691B797A69DB00D3185A68BB695B889B
:101B2000591C88B2B9694880D3180B22BA181278A8
:101B30001A70BB695B881A1EFB689A420CD3FB685B
:101B4000012B02D17B6808225A60BB6908221A70F7
:101B50007B6802225A6010E07B6804225A60FB68AE
:101B6000012B0AD9BB695B881A1CFB68013B9A42AE
:101B700003D17B6808225A6016E015E03A69802399
:101B80005B00134007D07B68802252001A63BB6958
:101B900009221A7008E007E0BB69FB225A70BB6992
:101BA00009221A7000E027E6BB691B78092B0BD1CC
:101BB0007B6800225A63BB695B785BB2012B05D15D
:101BC000BB6900225A7001E0012301E0BB695B7828
:101BD0005BB2181CBD4608B080BDC04680B584B05D
:101BE00000AF786039607B68294A934207D1294B5E
:101BF000FB607B689B680122134005D001E0FC2359
:101C000040E07B6820225A603B685B881A1C0223F4
:101C1000134003D03B681B89002B09D03B685B88CD
:101C20001A1C0423134005D03B681B8A002B01D1EA
:101C3000FC2327E0FB6800221A70FB6801225A701F
:101C4000FB6800225A80FB6800221A71FB683A6820
:101C50009A607B68C0225A607B689B6A202213408E
:101C600001D07B68DB697B680B4A1A637B685B6B1E
:101C7000FC22D2001A437B685A637B68181CFFF76A
:101C8000ABFD031C5BB2181CBD4604B080BDC04652
:101C900000A00040E4000020CFFF010080B582B02A
:101CA00000AF786039607B681B6C0122134000D064
:101CB00005E0C0467B685B6C3A681340FAD1BD46CC
:101CC00002B080BD80B586B000AFF860B9607A60C0
:101CD000BB68002B0DD1FB68144A934208D1144B0A
:101CE0007B617B69181CFEF75BFF031CBB6000E097
:101CF00019E0BB685B01181C796804F057F9031CF4
:101D00003B613B69203B3B613B69DB003B613B69DD
:101D1000084A13403B61FB68181C0421FFF7BEFF13
:101D2000FB683A69DA60BD4606B080BD00400840F5
:101D300070071600F87F000080B584B000AF7860AF
:101D40000A1CFB1C1A70FB1C1B78DB43FB60FB6846
:101D500005221340FB60FB685B00FB60FB1C1B78EB
:101D6000FA681343FB607B68181C0221FFF796FF9B
:101D70007B68FA685A60BD4604B080BD80B582B009
:101D800000AF78600A1CFB1C1A70FB1C1B78002B30
:101D900008D0C0467B685B6C002BFBD17B680122BE
:101DA0001A6402E07B6800221A64BD4602B080BD5E
:101DB00080B582B000AF786039607B68181C022162
:101DC000FFF76CFF7B680A225A607B68181C0121B0
:101DD000FFF7D4FF7B681B681C2293433A68127B91
:101DE00013433A68527B13433A68927B1A437B68E9
:101DF0001A603B685A683B689B687968081C111C2C
:101E00001A1CFFF75FFF3B681B781A1C7B685A603F
:101E10007B68181C0021FFF7B1FFBD4602B080BDF2
:101E200080B582B000AF78607B68181C0121FFF795
:101E3000A5FF7B68EA225A607B6800221A607B68F3
:101E40000022DA607B6800221A617B6800225A61F6
:101E50007B6800229A637B68074A5A637B6800228A
:101E6000DA637B6800225A657B68181C0021FFF743
:101E700085FFBD4602B080BDF907000080B582B085
:101E800000AF7860C0467B689B6820221340FAD080
:101E90007B68DB69DBB2181CBD4602B080BDC04662
:101EA00080B582B000AF78600A1CFB1C1A70C04677
:101EB0007B689B6810221340FAD07B68181C402175
:101EC000FFF7ECFEFB1C1A787B689A62BD4602B0F5
:101ED00080BDC04680B586B000AFF860B9607A605A
:101EE000FB681B687B61BB6801229A40131CDB43C3
:101EF0001A1C7B691A407B6801211940BB68994014
:101F00000B1C1A43FB681A60BD4606B080BDC04674
:101F100080B584B000AF786039607B68002B02D058
:101F2000012B03D008E0064BFB6002E0054BFB6091
:101F3000C046FB683A681A60BD4604B080BDC04622
:101F4000080008400C00084080B582B000AF021CB9
:101F5000FB1D1A70FB1D1B78044A101C00211A1C63
:101F6000FFF7B8FFBD4602B080BDC0460000084084
:101F700080B584B000AF78607B681B78002B02D0FE
:101F80000123FB6001E00023FB607B685B78002B92
:101F900003D0FB6802221343FB607B689B78002B15
:101FA00003D0FB6804221343FB60034BFA681A60FA
:101FB000BD4604B080BDC0460000084080B582B078
:101FC00000AF78607B68094A934203D07B68084A77
:101FD000934201D1012300E000231A1C0123134086
:101FE000DBB2181CBD4602B080BDC04600000140F7
:101FF0000004014080B582B000AF786039607B6832
:10200000181CFFF7DBFF3B681B7801225340DBB253
:10201000002B02D07B6802225A607B6800225A6241
:102020003B689B781A063B68DB781B041A433B68C5
:102030009B799B021A433B68DB791B0213433A6886
:10204000127A1A433B685B78002B01D0402300E0F2
:1020500000231A433B685B7A002B01D0802300E009
:1020600000231A433B689B7A002B01D0202300E019
:1020700000231A433B68DB7A002B01D0102300E0D9
:1020800000231A433B681B79002B02D080239B015D
:1020900000E000231A433B685B79002B02D08023C9
:1020A0005B0500E000231A433B681B7B002B01D03B
:1020B000082300E000231A437B681A603B681B7802
:1020C000002B02D07B6801225A60BD4602B080BD61
:1020D00080B584B000AF78607B68181CFFF76EFF96
:1020E0007B6802225A607B6800221A607B680022AB
:1020F000DA607B68154A9A617B6800221A627B6805
:10210000134ADA617B6800225A620023FB6016E002
:102110007B68FA68033212010021D1507A68FB68AB
:1021200003331B01D31800225A607A68FB681B0135
:10213000D318383300225A60FB680133FB60FB6818
:10214000022BE5DDBD4604B080BDC046730700002C
:10215000FFFF000080B582B000AF78607B68082B7D
:1021600006D00C2B02D0062B04D005E0002304E09F
:10217000012302E0022300E00023181CBD4602B048
:1021800080BDC04680B588B000AF7860424B181C57
:102190000121FEF7B3FC414B181CFEF71BFA182374
:1021A000FB1800221A701823FB1800225A701823FB
:1021B000FB1800229A701823FB181F22DA701823CC
:1021C000FB1800221A711823FB1800225A710020F4
:1021D000FEF72EFA031C1A1C1823FB18DA70304B7A
:1021E000181C0021FEF7BEF9031C1A1C1823FB184B
:1021F0001A711823FB1803221A700C23FB180022F3
:102200001A700C23FB1800225A700C23FB180022B2
:102210009A700C23FB180022DA700C23FB180022A2
:102220001A710C23FB1800225A710C23FB18002290
:102230009A710C23FB180022DA710C23FB18002280
:102240001A720C23FB1806221A710C23FB180422A5
:102250005A700C23FB1801229A707B68181CFFF738
:1022600079FF031CDAB20C23FB18DA700C23FB187D
:1022700000221A72094A1823FB18101C191CFEF7B9
:10228000CFF8064A0C23FB18101C191CFEF71AF98C
:10229000BD4608B080BDC04600A20400002000403A
:1022A000C0CF6A0080B582B000AF78600A1CFB1C0A
:1022B0001A70FB1C1A787B685A60BD4602B080BD5C
:1022C00090B585B000AF021CFB1D1A700023FB60A7
:1022D000214BFA1D12781A701F4B1B78002B29D145
:1022E000AA2000F089FEFA235B00181C00F0FEF91A
:1022F0000B23FB1818221A701849194A0B23FB18D4
:102300001B78184C081C111C1A1C231C02F0AAF87C
:10231000031E0AD0144A154B101C191C262201F06A
:102320003FFC01235B42FB6010E0114B181C01F0E5
:1023300037FC0BE0084B1B78012B07D10C20FFF773
:1023400021FF0C4B181C0121FFF7ACFFFB68181C88
:10235000BD4605B090BDC046F0000020280A000030
:1023600094250000E40C00008C640000B0640000C0
:10237000E46400000020004090B583B000AF1A4B29
:102380001B78002B1ED100233B60FC1D3B1C181C3E
:1023900002F058F8031C2370FB1D1B78002B09D09A
:1023A000124A134B101C191C602201F0F9FB012387
:1023B0005B4214E03B680F4A101C191C01F0F0FB53
:1023C0003B680CE0084B1B78012B06D10A4B181C0C
:1023D00001F0E6FB01235B4201E001235B42181C94
:1023E000BD4603B090BDC046F0000020B4650000BB
:1023F000B0640000DC650000F865000090B587B0AF
:1024000000AF021CFB1D1A70404B1B78002B00D044
:102410006DE000233B610023FB601723FC180C23B5
:10242000FB18181C01F0FEFF031C23701723FB1878
:102430001B78002B09D0364A364B101C191C75220C
:1024400001F0AEFBFB1D1B785CE01723FC1810238A
:10245000FB18181C01F0F6FF031C23701723FB1850
:102460001B78002B09D02C4A2A4B101C191C7A22ED
:1024700001F096FBFB1D1B7844E0FB68274A101C0B
:10248000191C01F08DFB3B69052B06DCFB1DFA1DB9
:10249000127804210A431A7026E03B690A2B06DCF5
:1024A000FB1DFA1D127802210A431A701CE0FB1D65
:1024B0001B780422134009D03B69072B06DDFB1D66
:1024C000FA1D127804218A431A700DE0FB1D1B7857
:1024D0000222134008D03B690C2B05DDFB1DFA1DC1
:1024E000127802218A431A70FB1D1B780AE0074B01
:1024F0001B78012B05D10A4B181C01F051FBFF235F
:1025000000E0FF23181CBD4607B090BDF00000207E
:1025100060650000B0640000B4650000146600004F
:1025200030660000B0B582B000AF021C3960FB1D00
:102530001A70FB1D1B787F2B2FD92D4CFB1D1B7890
:102540001A1C0F231340083B9908294AFB1D1B78CE
:10255000181C0F230340083B9B0806339B00D3182D
:102560005B68FA1D1278101C03220240D200101C76
:10257000FF228240D2431A403B689B01FF20034068
:10258000F81D0078051C03202840C00083401A4332
:102590008B1D9B00E3185A6026E0164CFB1D1B7830
:1025A0005BB29B081349FA1D127852B29208C032EE
:1025B00092005258F91D0978081C03210140C900F6
:1025C000081CFF218140C94311403A689201FF2055
:1025D0000240F81D0078051C03202840C0008240FE
:1025E0000A43C0339B001A51BD4602B0B0BDC0467D
:1025F00000ED00E000E100E080B582B000AF78605F
:102600007B68013B0C4A934201D9012310E00B4B3C
:102610007A68013A5A6001235B42181C0321FFF7D4
:1026200081FF064B00229A60044B07221A600023A8
:10263000181CBD4602B080BDFFFFFF0010E000E0A7
:1026400080B582B000AF786039607B681A683B68FB
:10265000DA40131C01221340181CBD4602B080BD95
:1026600080B582B000AF021C3960FB1D1A70FB1DE3
:102670001B78002B0DD0FB1D1B78012B09D0FB1DF7
:102680001B78022B05D0FB1D1B78032B01D0FB1DF3
:102690001B78FB1D1A78131CDB009B189B001C3356
:1026A000054A9A183B68101C191CFFF7C9FF031C48
:1026B000181CBD4602B080BD0060004080B500AF70
:1026C000094B181CFEF76CFA031C181CFA2399001E
:1026D00003F06CFC031C181CFFF78EFF031E00D0D8
:1026E000FEE7BD4680BDC0465000020080B584B004
:1026F00000AF7860064B1B68FB60C046044B1A684D
:10270000FB68D21A7B689A42F8D3BD4604B080BDFC
:10271000F400002090B585B000AF3960111CFB1D9E
:10272000021C1A70BB1D0A1C1A700023FB60134B9D
:10273000FA681A6008E0114B1A68FB68D21A3B6805
:102740009A4201D3012314E0BB1D1C78FB1D1A78AB
:102750000B4BD200D15CFB1D1B78094ADB00D31860
:102760005B68081C191CFFF77BFF031C9C42E2D02E
:102770000023181CBD4605B090BDC046F4000020E3
:102780005866000080B584B000AF021CFB1D1A70B3
:102790000023FB600F4BFA681A6006E00D4B1B68C4
:1027A0000D4A934201D907230FE002220E23101C89
:1027B000191CFFF755FF031EF0D0064B1B68074A94
:1027C000934201D9062300E00323181CBD4604B040
:1027D00080BDC046F400002087130000CF07000032
:1027E00080B584B000AF78600023FB600C4BFA68C2
:1027F0001A6008E00A4B1A68FB68D21A7B689A4292
:1028000001D3012308E004220C23101C191CFFF73C
:1028100027FF031EEED10023181CBD4604B080BD67
:10282000F400002080B500AF034B1B685A1C024B1C
:102830001A60BD4680BDC046F400002080B582B05D
:1028400000AF021CFB1D1A70064BFA1D1278111CFA
:102850001F220A40012191400A1C1A60BD4602B0A5
:1028600080BDC04600E100E080B582B000AF021C30
:10287000FB1D1A700649FB1D1B781A1C1F231340F1
:1028800001229A40131C80228B50BD4602B080BDAD
:1028900000E100E080B582B000AF021CFB1D1A70A1
:1028A0000649FB1D1B781A1C1F23134001229A4066
:1028B000C0235B00CA50BD4602B080BD00E100E00D
:1028C00080B582B000AF786003498E235B007A68E0
:1028D000CA50BD4602B080BD0060004080B582B0E5
:1028E00000AF78600649064A88235B00D3587A68AF
:1028F000D2431A4088235B00CA50BD4602B080BD57
:102900000060004080B582B000AF78600649064A9A
:1029100088235B00D2587B681A4388235B00CA5027
:10292000BD4602B080BDC0460060004080B582B0A8
:1029300000AF021C3960FB1D1A70FB1D1B78002BB9
:102940000DD0FB1D1B78012B09D0FB1D1B78022B22
:1029500005D0FB1D1B78032B01D0FB1D1B780949FB
:10296000FB1D1A783B6801209840031C181C131C9F
:10297000DB009B189B00CB1810335860BD4602B09B
:1029800080BDC0460060004080B582B000AF021C30
:102990003960FB1D1A70FB1D1B78002B0DD0FB1D31
:1029A0001B78012B09D0FB1D1B78022B05D0FB1DCA
:1029B0001B78032B01D0FB1D1B780949FB1D1A78DE
:1029C0003B6801209840031C181C131CDB009B185B
:1029D0009B00CB1810331860BD4602B080BDC046C6
:1029E0000060004090B585B002AF041C3960101C37
:1029F000191CFB1D221C1A70BB1D021C1A707B1DAA
:102A00000A1C1A70FB1D187839683A68BB1D1C78BF
:102A10007B1D1B7800931823FB181B780193231C44
:102A2000FEF7BEFCBD4603B090BDC04680B500AF0A
:102A30000620FFF72FFF0620FFF700FFBD4680BDF1
:102A400080B500AF0620FFF70FFFBD4680BDC04632
:102A500080B500AF0120FFF71DFF0120FFF7EEFE5C
:102A6000BD4680BD80B500AF0120FFF7FDFEBD462D
:102A700080BDC04680B582B000AF021CFB1D1A703D
:102A8000FB1D1B78042B21D006DC012B44D0022B2C
:102A90002FD0002B53D079E0072B63D0FF2B74D0BD
:102AA000052B00D072E002220123101C191CFFF735
:102AB0006BFF01220723101C191CFFF737FF0122AF
:102AC0000823101C191CFFF75FFF5FE0022201239F
:102AD000101C191CFFF72AFF01220723101C191CC8
:102AE000FFF724FF01220823101C191CFFF74CFFDD
:102AF0004CE002220123101C191CFFF717FF0122D2
:102B00000723101C191CFFF73FFF01220823101C8C
:102B1000191CFFF70BFF39E002220123101C191CBE
:102B2000FFF732FF01220723101C191CFFF7FEFEDE
:102B300001220823101C191CFFF7F8FE26E00222D0
:102B40000123101C191CFFF7F1FE01220723101CA2
:102B5000191CFFF7EBFE01220823101C191CFFF7BC
:102B6000E5FE13E002220123101C191CFFF70CFFE5
:102B700001220723101C191CFFF706FF012208235E
:102B8000101C191CFFF700FF00E0C046C046BD4600
:102B900002B080BD80B584B002AF021CFB1D1A706C
:102BA000BB1D0A1C1A70FB1D1B78053B152B00D999
:102BB000AAE19A00D74BD3181B689F46FB1D1A78D1
:102BC000D54BD200D15CFB1D1B78D34ADB00D31858
:102BD0005B68081C191C01220123FEF767FC94E1C5
:102BE000FB1D1A78CC4BD200D15CFB1D1B78CA4A66
:102BF000DB00D3185B68081C191C01220123FEF7B7
:102C000055FCFB1D1A78C44BD200D15CFB1D1B7810
:102C1000C14ADB00D3185A68BB1D1B780093081CFF
:102C2000111C01220123FFF7DDFE6EE1FB1D1A7866
:102C3000B94BD200D15CFB1D1B78B74ADB00D3181F
:102C40005B68081C191C01220123FEF72FFCFB1DE9
:102C50001A78B14BD200D15CFB1D1B78AE4ADB0069
:102C6000D3185A68BB1D1B780093081C111C012245
:102C70000023FFF7B7FE48E1FB1D1A78A64BD200F0
:102C8000D15CFB1D1B78A44ADB00D3185B68081CD1
:102C9000191C01220123FEF709FC36E1FB1D1A78FD
:102CA0009D4BD200D15CFB1D1B789B4ADB00D318E7
:102CB0005B68081C191C04220023FEF7F7FB24E1C3
:102CC000FB1D1A78944BD200D15CFB1D1B78924AF5
:102CD000DB00D3185B68081C191C01220123FEF7D6
:102CE000E5FBFB1D1A788C4BD200D15CFB1D1B78D9
:102CF000894ADB00D3185A68BB1D1B780093081C57
:102D0000111C01220023FFF76DFEFEE000210222CC
:102D1000BB1D1B78002B01D0002300E00123081C01
:102D2000111C0422FEF7C2FB02210022BB1D1B78EE
:102D3000002B01D0002300E00123081C111C0422F9
:102D4000FEF7B4FBE1E000220123101C191C08224D
:102D50000123FEF7ABFB00220023101C191C0822E4
:102D60000123FEF7A3FBD0E002210122BB1D1B784B
:102D7000002B01D0042300E00023081C111C1A1CA6
:102D80000023FEF793FB01210722BB1D1B78002BBC
:102D900001D0042300E00023081C111C1A1C00238E
:102DA000FEF784FB01210822BB1D1B78002B01D0FC
:102DB000042300E00023081C111C1A1C0023FEF74A
:102DC00075FBA2E0FB1D1A78534BD200D15CFB1DB2
:102DD0001B78514ADB00D3185B68081C191C0422BD
:102DE0000023FEF763FBFB1D1A784B4BD200D15C2E
:102DF000FB1D1B78484ADB00D3185B68081C191CB4
:102E0000FFF794FD81E0FB1D1A78434BD200D15CA3
:102E1000FB1D1B78404ADB00D3185B68081C191C9B
:102E200001220123FEF742FB6FE0FB1D1A783A4BAB
:102E3000D200D15CFB1D1B78374ADB00D3185B68DE
:102E4000081C191C01220123FEF730FBFB1D1A7818
:102E5000314BD200D15CFB1D1B782F4ADB00D3180D
:102E60005A68BB1D1B780093081C111C012201230A
:102E7000FFF7B8FD49E0FB1D1A78274BD200D15C63
:102E8000FB1D1B78244ADB00D3185B68081C191C47
:102E900001220023FEF70AFB37E003220523101C62
:102EA000191C01220123FEF701FB03220423101C3D
:102EB000191C04220123FEF7F9FA26E0FB1D1A78FB
:102EC000154BD200D15CFB1D1B78134ADB00D318D5
:102ED0005B68081C191C01220123FEF7E7FAFB1DA1
:102EE0001A780D4BD200D15CFB1D1B780A4ADB001F
:102EF000D3185A68BB1D1B780093081C111C0022B4
:102F00000123FFF76FFD00E0C046C046BD4602B09A
:102F100080BDC046B86700000867000080B582B079
:102F200000AF021CFB1D1A70FB1D1B780C4ADB0056
:102F3000D3185B681A1C01239340181CFFF7C0FCD0
:102F4000FB1D1B78064ADB00D3185B681A1C0123A3
:102F50009340181CFFF7D6FCC046BD4602B080BDAA
:102F60000867000080B582B000AF021CFB1D1A701C
:102F7000FB1D1B78064ADB00D3185B681A1C012373
:102F80009340181CFFF7AAFCC046BD4602B080BDA6
:102F90000867000080B582B000AF021CFB1D1A70EC
:102FA000FB1D1B78002B02D0FFF752FD01E0FFF75D
:102FB00059FDBD4602B080BD80B582B000AF021C95
:102FC000FB1D1A70FB1D1B78002B02D0FFF72EFD96
:102FD00001E0FFF735FDBD4602B080BD80B582B08F
:102FE00000AF021CFB1D1A70FB1D1B78181CFFF79D
:102FF00041FDBD4602B080BD90B587B000AF021C58
:10300000FB1D1A700E4B181C0121FDF777FD0823DC
:10301000FB180C4A13CA13C312681A601820012146
:10302000FFF7B8FD084B03229A63074A0823FB18F1
:10303000101C191CFEF7A2FBC046BD4607B090BD90
:1030400000B204001068000000A0004090B585B0F8
:1030500000AF78600F23FB1801221A700F23FC18B1
:103060000F4A7B68101C191CFEF7B8FD031C237067
:1030700007E00F23FC180A4B181CFEF7ADFB031CDE
:1030800023700F23FB181B785BB2012BF1D00F23A9
:10309000FB181B785BB2181CBD4605B090BDC0463E
:1030A00000A0004080B582B000AF021C3960FB1D5B
:1030B0001A70FB1D1B78002B0DD0FB1D1B78012BFC
:1030C00009D0FB1D1B78022B05D0FB1D1B78032BA1
:1030D00001D0FB1D1B780949FB1D1A783B680120B4
:1030E0009840031C181C131CDB009B189B00CB187A
:1030F00010335860BD4602B080BDC046006000403D
:1031000080B582B000AF021C3960FB1D1A70FB1D38
:103110001B78002B0DD0FB1D1B78012B09D0FB1D4C
:103120001B78022B05D0FB1D1B78032B01D0FB1D48
:103130001B780949FB1D1A783B6801209840031C45
:10314000181C131CDB009B189B00CB181033186055
:10315000BD4602B080BDC0460060004080B582B070
:1031600000AF021C3960FB1D1A70FB1D1B78002B81
:103170000DD0FB1D1B78012B09D0FB1D1B78022BEA
:1031800005D0FB1D1B78032B01D0FB1D1B780949C3
:10319000FB1D1A783B6801209840031C181C131C67
:1031A000DB009B189B00CB1818331860BD4602B09B
:1031B00080BDC0460060004080B582B000AF021CF8
:1031C000FB1D1A70FB1D1B78002B06D0002202236A
:1031D000101C191CFFF766FF05E000220223101CDB
:1031E000191CFFF78DFFBD4602B080BD80B582B0CF
:1031F00000AF021CFB1D1A70FB1D1B78002B06D0B4
:1032000002220023101C191CFFF74CFF05E00222CC
:103210000023101C191CFFF773FFBD4602B080BDD0
:1032200080B582B000AF021CFB1D1A70FB1D1A781E
:10323000074BD200D15CFB1D1B78054ADB00D3187D
:103240005B68081C191CFFF789FFBD4602B080BDF2
:103250002068000090B585B000AF041C081C111C4C
:10326000FB1D221C1A70BB1D021C1A707B1D0A1C40
:103270001A70BB1D1B78002B00DAC8E0012B02DDA1
:10328000022B5DD0C3E00F23FB18BA1D1278514208
:103290004A411A70FB1D1B78002B1AD15E4BBA1DD8
:1032A00012781A705C4B00225A700F23FB181B789F
:1032B000181CFFF781FF594BBA1D12781A70574B33
:1032C00000225A700F23FB181B78181CFFF78EFF83
:1032D00035E0FB1D1B78012B16D14F4BBA1D127820
:1032E0001A704D4B00225A700F23FB181B78181CC4
:1032F000FFF762FF494B01221A70484B00225A70B7
:103300000020FFF773FF1AE0FB1D1B78022B16D17C
:10331000424BBA1D12781A70404B00225A700F238C
:10332000FB181B78181CFFF761FF3B4B01221A703A
:10333000394B00225A700020FFF73EFF68E067E03B
:10334000FB1D1B78002B14D1334B02221A70324B19
:103350007A1D12785A700120FFF72EFF2F4B0222A0
:103360001A702E4B7A1D12785A700120FFF73EFF1B
:1033700047E0FB1D1B78012B13D1274B02221A704B
:10338000254B7A1D12785A700120FFF715FF234B49
:1033900001221A70214B00225A700020FFF726FFED
:1033A0002FE0FB1D1B78022B13D11C4B02221A703D
:1033B0001A4B7A1D12785A700120FFF717FF164B2F
:1033C00001221A70144B00225A700020FFF7F4FEFD
:1033D00017E0FB1D1B78032B13D10F4B02221A7031
:1033E0000D4B7A1D12785A700120FFF7E5FE0B4B4A
:1033F00002221A70094B7A1D12785A700020FFF7CA
:10340000F5FE0A2002210A2200F0D2F900E0C046AF
:10341000C046BD4605B090BD180000201C0000202D
:1034200080B500AF084B1B78DBB2022B02D1022023
:10343000FFF7F6FE054B1B78DBB2022B02D108200A
:10344000FFF7EEFEBD4680BD180000201C000020E6
:1034500080B584B000AF021CFB1D1A70FB1D1B78E9
:10346000052B02D8FB1D1B7800E00023FB60044BFA
:10347000FA685200D35C181CBD4604B080BDC0463B
:103480000C00002080B584B000AF021CFB1D1A7038
:10349000FB1D1B78052B02D8FB1D1B7800E00023C9
:1034A000FB60044AFB685B00D3185B78181CBD46C0
:1034B00004B080BD0C00002080B582B000AF021CBB
:1034C000FB1D1A70064BFA1D1278111C1F220A40B0
:1034D000012191400A1C1A60BD4602B080BDC04661
:1034E00000E100E080B582B000AF021CFB1D1A7045
:1034F0000649FB1D1B781A1C1F23134001229A400A
:10350000C0235B00CA50BD4602B080BD00E100E0B0
:1035100080B582B000AF7860024B7A689A61BD4690
:1035200002B080BD0000084080B582B000AF786076
:10353000044B044AD1697A680A43DA61BD4602B095
:1035400080BDC0460000084080B586B000AFB960BD
:103550007A600F23FB18021C1A70244A0F23FB18F1
:103560001B78101C191CFDF751FC214B181C012164
:10357000FDF7C4FABB68002B05D01D4ABB68101CC0
:10358000191CFDF72DFA1A4B181CFDF709FB031C3B
:103590007B617B697A6853430020191CFEF7B8FCF5
:1035A0001023FA18134B111C1A1C0323081C111C9E
:1035B0001A1C02F0D7FE1023FB1800221A700720F5
:1035C000FFF7A6FF0220FFF7AFFF1023FB18181C20
:1035D000FEF7CEFC0C20FFF785FF0C20FFF76CFFF9
:1035E0000120FEF7B1FCBD4606B080BD02001A0006
:1035F00060061000D068000080B582B000AF021CE9
:10360000FB1D1A70064BFA1D1278111C1F220A406E
:10361000012191400A1C1A60BD4602B080BDC0461F
:1036200000E100E080B582B000AF021CFB1D1A7003
:103630000649FB1D1B781A1C1F23134001229A40C8
:10364000131C80228B50BD4602B080BD00E100E01B
:1036500080B582B000AF021CFB1D1A700649FB1D2D
:103660001B781A1C1F23134001229A40C0235B00C1
:10367000CA50BD4602B080BD00E100E080B582B016
:1036800000AF78607B68094A934203D07B68084AA0
:10369000934201D1012300E000231A1C01231340AF
:1036A000DBB2181CBD4602B080BDC0460000014020
:1036B0000004014080B582B000AF7860024B181C56
:1036C000BD4602B080BDC046FFFF000080B582B09D
:1036D00000AF78600A1CFB1C1A707B68181CFFF78F
:1036E000CDFFFB1C1B78002B03D07B6801225A60A6
:1036F00002E07B6802225A60BD4602B080BDC0462F
:1037000080B582B000AF786039607B683A689A61B2
:10371000BD4602B080BDC04680B582B000AF7860C3
:1037200039607B68DA683B681A437B68DA60BD46BB
:1037300002B080BD80B582B000AF786039607B6830
:10374000181CFFF7B7FF7B683A68DA61BD4602B024
:1037500080BDC04680B582B000AF78607B680A2B20
:103760001ED87B689A00114BD3181B689F46012313
:1037700017E0022315E0042313E0082311E01023CF
:103780000FE020230DE040230BE0802309E080239D
:103790005B0006E080239B0003E08023DB0000E069
:1037A0000123181CBD4602B080BDC046D46800008D
:1037B00090B589B000AFF860B9607A603F4B181CD3
:1037C0000121FDF79BF93E4B181CFEF781FC3C4A9A
:1037D0003C4B101C191CFFF793FF394B181C01219F
:1037E000FFF79AFF1023FB1801221A701023FB1811
:1037F00000225A701023FB1800229A701023FB1825
:103800000022DA701023FB1800221A711023FB1813
:1038100000225A711023FB1800229A711023FB1802
:103820000022DA711023FB1800221A721023FB18F1
:1038300000225A721023FB1800229A721023FB18E0
:103840000022DA721023FB1800221A731023FB18CF
:1038500000221A70FB68DAB21023FB189A70184A1B
:103860001023FB18101C191CFEF7C4FB134B181C6B
:10387000FDF796F9021CBB6853431C1CFB68181C1F
:10388000FFF768FF021C7B685343201C191C02F0E1
:103890008DFB031C1A1C0A4B181C111CFFF74AFF56
:1038A0000720FFF7D5FE0720FFF7A6FE044B181CE4
:1038B0000121FFF70BFFBD4609B090BD00120400C7
:1038C000000401407307000080B500AF0A4B181CCC
:1038D0000021FFF7FBFE0220FFF7A4FE0220FFF706
:1038E000B7FE054B181CFEF7F3FB044B181C002118
:1038F000FDF704F9BD4680BD000001400002040050
:1039000080B582B000AF021CFB1D1A70064BFA1D79
:103910001278111C1F220A40012191400A1C1A60D2
:10392000BD4602B080BDC04600E100E080B582B077
:1039300000AF021CFB1D1A700649FB1D1B781A1CE8
:103940001F23134001229A40C0235B00CA50BD468A
:1039500002B080BD00E100E080B582B000AF7860C9
:1039600039607B683A685A63BD4602B080BDC04684
:1039700080B582B000AF786039607B689B6B3A6835
:10398000D2431A407B689A63BD4602B080BDC046F0
:1039900080B582B000AF786039607B689A6B3B6815
:1039A0001A437B689A63BD4602B080BD80B582B081
:1039B00000AF021CFB1D1A70044AFB1D1B78101C73
:1039C000191CFEF76DFABD4602B080BD00400840EC
:1039D00080B582B000AF021CFB1D1A70044AFB1DAB
:1039E0001B78101C191CFEF75BFABD4602B080BDA7
:1039F0000040084080B582B000AF78607B68002B43
:103A000000D120E07B68002B08DA2D20FFF7E0FFD3
:103A10007B685B42181CFFF7EDFF14E07B68181C05
:103A20000A2102F053FB031C181CFFF7E3FF7B681D
:103A3000181C0A2102F030FC0B1CDBB23033DBB265
:103A4000181CFFF7C5FFBD4602B080BD80B582B02F
:103A500000AF78607B68002B00D114E07B68181CF5
:103A60000A2102F0A3FA031C181CFFF7EFFF7B6882
:103A7000181C0A2102F020FB0B1CDBB23033DBB236
:103A8000181CFFF7A5FFBD4602B080BD80B584B00D
:103A900000AF78607B68181C02F075FC031CBB60EB
:103AA0000023FB6009E07A68FB68D3181B78181CB8
:103AB000FFF78EFFFB680133FB60FA68BB689A4230
:103AC000F1D3BD4604B080BD80B582B000AF021C0A
:103AD000FB1D1A701E4B181C0121FDF70FF81D4B22
:103AE000181C0321FDF792F91B4B181C0121FDF74F
:103AF00005F81A4B181CFEF793F9184A184B101CBE
:103B0000191CFEF755F91A200121FFF743F8134A53
:103B1000144B101C191CFFF71FFFFB1D1B78002BFB
:103B200004D00E4B181C0421FFF732FF0A20FFF7C8
:103B3000FDFE0A20FFF7E4FE084B03225A65074BFF
:103B4000181C0521FEF7F8F8BD4602B080BDC0463E
:103B50000023020003001C0070071600004008400C
:103B600020000020F907000080B500AF054B181CAD
:103B70000421FFF7F1FE034B181C0421FFF708FF97
:103B8000BD4680BD0040084080B500AF034B181C07
:103B90000421FFF7EDFEBD4680BDC0460040084051
:103BA0000FB480B586B000AF414B1B78DBB2002B61
:103BB00000D076E02423FB187B606BE03B6A1B7827
:103BC000252B08D03B6A1B78181CFFF701FF3B6AC6
:103BD00001333B625EE03B6A01333B623B6A1B7828
:103BE000642B19D002DC632B05D04AE0732B3BD049
:103BF000752B25D045E07B681A1D7A601A6817235B
:103C0000FB181A701723FB181B78181CFFF7E0FE2F
:103C10003B6A01333B623DE07B681A1D7A601B689A
:103C20003B613B69002B03D13020FFF7D1FE03E05D
:103C30003B69181CFFF7DEFE3B6A01333B6229E05B
:103C40007B681A1D7A601B68FB60FB68002B03D140
:103C50003020FFF7BDFE03E0FB68181CFFF7F6FEFF
:103C60003B6A01333B6215E07B681A1D7A601B6872
:103C7000BB60BB68181CFFF709FF3B6A01333B625E
:103C800008E03B6A1B78181CFFF7A2FE3B6A013371
:103C90003B62C0463B6A1B78002B8FD10D20FFF79B
:103CA00097FEC046BD4606B080BC08BC04B01847AD
:103CB000F800002080B582B000AF021CFB1D1A7016
:103CC000064B1B78DBB2012B04D1FB1D1B78181CA3
:103CD000FFF76CFEBD4602B080BDC046F800002074
:103CE00080B500AF2A4B1B78DBB2012B07D1284BE4
:103CF00000221A70274B181CFFF752FF45E0264B95
:103D0000181CFFF74DFF224B01221A702A20FFF7E3
:103D1000D1FF2A20FFF7CEFF2A20FFF7CBFF2A2072
:103D2000FFF7C8FF2A20FFF7C5FF2A20FFF7C2FFD1
:103D30002A20FFF7BFFF2A20FFF7BCFF2A20FFF74A
:103D4000B9FF2A20FFF7B6FF2A20FFF7B3FF2A208A
:103D5000FFF7B0FF2A20FFF7ADFF2A20FFF7AAFFE9
:103D60002A20FFF7A7FF2A20FFF7A4FF2A20FFF74A
:103D7000A1FF2A20FFF79EFF2A20FFF79BFF2A20A2
:103D8000FFF798FF2A20FFF795FFC046BD4680BD8C
:103D9000F8000020006900003069000080B582B0A2
:103DA00000AF786039607B681A683B68DA40131CA2
:103DB00001221340181CBD4602B080BD80B582B000
:103DC00000AF021C3960FB1D1A70FB1D1B78002B15
:103DD0000DD0FB1D1B78012B09D0FB1D1B78022B7E
:103DE00005D0FB1D1B78032B01D0FB1D1B78FB1D91
:103DF0001A78131CDB009B189B001C33054A9A1889
:103E00003B68101C191CFFF7C9FF031C181CBD469A
:103E100002B080BD0060004080B582B000AF021CDF
:103E20003960FB1D1A70FB1D1B78002B0DD0FB1D8C
:103E30001B78012B09D0FB1D1B78022B05D0FB1D25
:103E40001B78032B01D0FB1D1B780949FB1D1A7839
:103E50003B6801209840031C181C131CDB009B18B6
:103E60009B00CB1810335860BD4602B080BDC046E1
:103E70000060004080B582B000AF021C3960FB1DBD
:103E80001A70FB1D1B78002B0DD0FB1D1B78012B1E
:103E900009D0FB1D1B78022B05D0FB1D1B78032BC3
:103EA00001D0FB1D1B780949FB1D1A783B680120D6
:103EB0009840031C181C131CDB009B189B00CB189C
:103EC00010331860BD4602B080BDC046006000409F
:103ED00080B500AF01220B23101C191CFFF79CFFBB
:103EE00005220223101C191CFFF796FFBD4680BD5A
:103EF00080B500AF05220223101C191CFFF7BAFF82
:103F000001220B23101C191CFFF7B4FFBD4680BD16
:103F100080B582B000AF021CFB1D1A701920012170
:103F2000FEF738FE022000210022FFF793F9FB1D67
:103F30001B78181CFFF752F8FB1D1B78032B0BD1C5
:103F400001220B23101C191CFFF766FF0522022318
:103F5000101C191CFFF760FF04220D23101C191CF4
:103F6000FFF788FFBD4602B080BDC04680B500AFF8
:103F700004220D23101C191CFFF74EFF19200021ED
:103F8000FEF708FE002001210022FFF763F9BD467D
:103F900080BDC04680B582B000AF021CFB1D1A7008
:103FA000FB1D1B78002B02D0FFF7A2FF01E0FFF7FB
:103FB0008FFFBD4602B080BD80B582B000AF022247
:103FC0000D23101C191CFFF7F9FE031C7B607B6896
:103FD0005A1E9341DBB2181CBD4602B080BDC046DC
:103FE00080B584B000AF021CFB1D1A7001220D23A6
:103FF000101C191CFFF7E2FE031CFB60FB68012B81
:1040000003D1FB1D02221A7002E0FB1D01221A706F
:10401000FB1D1B78181CBD4604B080BD80B582B066
:1040200000AF04220A23101C191CFFF7C7FE031C53
:104030007B607B68012B05D1074B181CFFF7B0FD97
:10404000012304E0054B181CFFF7AAFD0523181CEB
:10405000BD4602B080BDC04668690000906900009E
:1040600080B584B000AF3A60FB1D021C1A70BB1D06
:104070000A1C1A700F23FB18FA1D12781A70124BC3
:10408000AA221A80104B04225A800F4B0F22BA1812
:104090005A600D4B01221A810B4B3A68DA60BB1D46
:1040A0001B789AB2084B1A82074B181CFEF7CEFFFA
:1040B000031E01D0012303E03220FEF717FB00238B
:1040C000181CBD4604B080BDFC00002080B584B043
:1040D00000AF3A60FB1D021C1A70BB1D0A1C1A704F
:1040E0000F23FB18FA1D12781A70124BAA221A809D
:1040F000104B08225A800F4B0F22BA185A600D4BF2
:1041000001221A810B4B3A68DA60BB1D1B789AB208
:10411000084B1A82074B181CFEF798FF031E01D0AC
:10412000012303E03220FEF7E1FA0023181CBD460C
:1041300004B080BDFC000020B0B584B000AF051C09
:104140000C1C101C191CFB1D2A1C1A70BB1D221CE8
:104150001A707B1D021C1A703B1D0A1C1A700F235B
:10416000FB1800221A700E23FB1800221A700F236E
:10417000FC180E23FB18612001211A1CFFF7A6FF73
:10418000031C23700F23FB181B78002B03D00F2375
:10419000FB181B784BE00E23FB18FA1D12781A70DF
:1041A0000F23FC180E23FB183E2001211A1CFFF7D9
:1041B0008DFF031C23700F23FB181B78002B03D0EB
:1041C0000F23FB181B7832E00E23FB18BA1D127860
:1041D0001A700F23FC180E23FB183F2001211A1C14
:1041E000FFF774FF031C23700F23FB181B78002BB1
:1041F00003D00F23FB181B7819E07B1D1B7840337D
:10420000D9B20F23FC183B1D1A783B6A081C111CFD
:104210001A1CFFF725FF031C23700F23FB181B78C4
:10422000002B03D00F23FB181B7800E00023181C81
:10423000BD4604B0B0BDC046B0B584B000AF051CEB
:104240000C1C101C191CFB1D2A1C1A70BB1D221CE7
:104250001A707B1D021C1A703B1D0A1C1A700F235A
:10426000FB1800221A700E23FB1800221A700F236D
:10427000FC180E23FB18612001211A1CFFF726FFF2
:10428000031C23700F23FB181B78002B03D00F2374
:10429000FB181B784BE00E23FB18FA1D12781A70DE
:1042A0000F23FC180E23FB183E2001211A1CFFF7D8
:1042B0000DFF031C23700F23FB181B78002B03D06A
:1042C0000F23FB181B7832E00E23FB18BA1D12785F
:1042D0001A700F23FC180E23FB183F2001211A1C13
:1042E000FFF7F4FE031C23700F23FB181B78002B31
:1042F00003D00F23FB181B7819E07B1D1B7840337C
:10430000D9B20F23FC183B1D1A783B6A081C111CFC
:104310001A1CFFF7DBFE031C23700F23FB181B780E
:10432000002B03D00F23FB181B7800E00023181C80
:10433000BD4604B0B0BDC04690B585B000AF021C0C
:104340003960FB1D1A700F23FB1800221A70FB1D29
:104350001B78002B0AD10F23FC183B686020012139
:104360001A1CFFF77DFE031C237009E00F23FC18C5
:104370003B68602001211A1CFFF7A8FE031C237074
:104380000F23FB181B78181CBD4605B090BDC04616
:1043900080B586B000AFBA607B600F23FB18021CAB
:1043A0001A700E23FB180A1C1A701723FB18002220
:1043B0001A700F23FB180F22BA181278D2431A7002
:1043C0001723FB1800221A701BE01723FB181B7819
:1043D0007A68D3181A781723FB181B78B968CB189A
:1043E0001B78D31AD9B20F23FB180F22BA181278F0
:1043F0008A181A701723FB181A781723FB18013232
:104400001A701723FA180E23FB1812781B789A4299
:10441000DBD30F23FB181B78DB43DBB2181CBD4634
:1044200006B080BD80B582B000AF78607B680C209C
:1044300002211A1CFFF714FE031C181CBD4602B013
:1044400080BDC04680B582B000AF78607B681C201C
:1044500002211A1CFFF704FE031C181CBD4602B003
:1044600080BDC046B0B588B002AF051C0C1C101C46
:10447000191CBB1D2A1C1A803B1D221C1A80FB1C08
:10448000021C1A703B1C0A1C1A801723FB180022FE
:104490001A701023FB1800221A600C23FB1800224C
:1044A0001A601723FC181023FB18009330200021FA
:1044B00013220423FFF740FE031C23701723FB186D
:1044C0001B78002B03D01723FB181B78C4E10B23A8
:1044D000FB1800221A701723FC180B23FB1800206E
:1044E000191CFFF729FF031C23701723FB181B78E7
:1044F000002B03D01723FB181B78ADE1BB1D1B88D5
:104500001B0A9BB2DAB20C23FB181A70BB1D1B8866
:10451000DAB20C23FB185A703B1D1B881B0A9BB296
:10452000DAB20C23FB189A703B1D1B88DAB20C23FD
:10453000FB18DA700B23FB1819781023FA180C23D8
:10454000FB18081C0421FFF723FF031C1A1C0B2374
:10455000FB181A701723FC180C23FB18009330204B
:10456000002113220423FFF767FE031C2370172387
:10457000FB181B78002B03D01723FB181B786BE16B
:104580001723FC180B23FB180120191CFFF7D4FE7E
:10459000031C23701723FB181B78002B03D0172351
:1045A000FB181B7858E1C820FEF7A0F81023FB1871
:1045B00000225A701023FB185A781023FB181A7027
:1045C0001723FC181023FB180093502001210D2203
:1045D0000223FFF7B1FD031C23701723FB181B7880
:1045E000002B03D01723FB181B7835E11723FC1889
:1045F0000B23FB180020191CFFF79EFE031C2370E1
:104600001723FB181B78002B03D01723FB181B78EC
:1046100022E13B1C1B881B0A9BB2DAB20C23FB185D
:104620001A703B1C1B88DAB20C23FB185A700B2340
:10463000FB1819781023FA180C23FB18081C022108
:10464000FFF7A6FE031C1A1C0B23FB181A70172376
:10465000FC180C23FB180093502001210D2202238B
:10466000FFF7EAFD031C23701723FB181B78002BB0
:1046700003D01723FB181B78EEE01723FC180B233D
:10468000FB180120191CFFF757FE031C237017238A
:10469000FB181B78002B03D01723FB181B78DBE0DB
:1046A000C820FEF723F80C23FB1800221A700C23F5
:1046B000FB181A781023FB181A701723FC18102304
:1046C000FB1800934020002100220123FFF734FD56
:1046D000031C23701723FB181B78002B03D0172310
:1046E000FB181B78B8E01723FC180B23FB180020DD
:1046F000191CFFF721FE031C23701723FB181B78DE
:10470000002B03D01723FB181B78A5E00C23FB1804
:10471000FA1C12781A700B23FB1819781023FA1858
:104720000C23FB18081C0121FFF732FE031C1A1C86
:104730000B23FB181A701723FC180C23FB1800938B
:104740004020002100220123FFF776FD031C237087
:104750001723FB181B78002B03D01723FB181B789B
:104760007AE01723FC180B23FB180120191CFFF714
:10477000E3FD031C23701723FB181B78002B03D0C9
:104780001723FB181B7867E0C820FDF7AFFF0C2349
:10479000FB180C221A700C23FB1800225A701723E6
:1047A000FC180C23FB18002002211A1CFFF78EFCBA
:1047B000031C23701723FB181B78002B03D017232F
:1047C000FB181B7848E0C820FDF790FF0C23FB186E
:1047D00000221A700C23FB1800225A701723FC18B1
:1047E0000C23FB18002002211A1CFFF76FFC031C8E
:1047F00023701723FB181B78002B00D029E00A2018
:10480000FDF774FF1023FB1800225A701023FB18C9
:104810005A781023FB181A701723FC181023FB1862
:10482000002002211A1CFFF71BFC031C2370172316
:10483000FB181B78002B00D00BE01023FB181B7813
:10484000DBB25BB2002B00DA03E03220FDF74EFF53
:10485000BCE71723FB181B78181CBD4606B0B0BD7B
:1048600080B582B000AF786039607B681A683B68B9
:10487000DA40131C01221340181CBD4602B080BD53
:1048800080B582B000AF786003498E235B007A6800
:10489000CA50BD4602B080BD0060004080B582B005
:1048A00000AF074A88235B00D3587B60044A8A2301
:1048B0005B00D3587A681340181CBD4602B080BD17
:1048C0000060004080B582B000AF021C3960FB1D63
:1048D0001A70FB1D1B78002B0DD0FB1D1B78012BC4
:1048E00009D0FB1D1B78022B05D0FB1D1B78032B69
:1048F00001D0FB1D1B78FB1D1A78131CDB009B18D5
:104900009B001C33054A9A183B68101C191CFFF7C2
:10491000A7FF031C181CBD4602B080BD006000400C
:1049200080B500AFBD4680BD80B582B000AF786075
:10493000024B7A689A61BD4602B080BD0000084013
:1049400080B500AF024B1B69181CBD4680BDC04638
:104950000000084080B582B000AF786039607B68A5
:104960003A685A63BD4602B080BDC04680B582B089
:1049700000AF78607B68DB6A181CBD4602B080BD62
:1049800080B582B000AF786039607B683A689A6120
:10499000BD4602B080BDC04680B582B000AF786031
:1049A0007B681B69181CBD4602B080BD80B582B013
:1049B00000AF786039607B683A681A62BD4602B021
:1049C00080BDC04680B582B000AF78607B689B69CF
:1049D000181CBD4602B080BD80B500AF174A184B09
:1049E000101C191CFFF7DCF8164B181CFFF7D8F841
:1049F000154B181CFFF7D4F8144B181CFFF7D0F810
:104A0000134B181CFFF7CCF8124B181CFFF7C8F813
:104A1000114B181CFFF7C4F8104B181CFFF7C0F817
:104A20000F4B181CFFF7BCF80E4B181CFFF7B8F81B
:104A30000D4B181CFFF7B4F8BD4680BDB4690000EB
:104A4000E0690000F0690000106A0000306A0000B0
:104A5000546A0000886A0000AC6A0000D06A000056
:104A6000F46A00001C6B0000486B000080B500AFCA
:104A7000FFF7A2FA031E12D00120FFF78BFA1220D3
:104A80000021FEF787F8134B1B7802221343DAB29A
:104A9000104B1A70104B181CFFF782F818E000201A
:104AA000FFF778FA0D4B04221A7004220B23101C16
:104AB000191C00220023FCF7F9FC064B1B7802228C
:104AC0009343DAB2034B1A70054B181CFFF768F8D2
:104AD000BD4680BD40000020686B00003100002012
:104AE000846B000080B500AFFFF766FA031C1A1C48
:104AF00001235340DBB2002B18D00020FFF74AFA05
:104B00000B4B04221A7004220B23101C191C0022C8
:104B10000023FCF7CBFC074B1B7802229343DAB24D
:104B2000044B1A70044B181CFFF73AF8BD4680BDC1
:104B30003100002040000020846B000098B500AFD9
:104B40004C4B1B78DBB2012B03D04B4B02221A706B
:104B50000CE0494B00221A70072032210122FDF798
:104B6000D9FD031E02D0444B01221A70414B1B7821
:104B7000DBB2012B53D0414B1B78DBB21A1C022352
:104B800013400ED00320FEF763FC031C1C1C032003
:104B9000FEF778FC031C201C191C0022FEF75AFBB0
:104BA00064E0364B1B78DBB21A1C042313400ED092
:104BB0000420FEF74DFC031C1C1C0420FEF762FCC5
:104BC000031C201C191C0022FEF744FB4EE02C4B5A
:104BD0001B78DBB2012B0ED10120FEF739FC031C40
:104BE0001C1C0120FEF74EFC031C201C191C00227B
:104BF000FEF730FB3AE0224B1B78DBB2002B35D1BD
:104C00000020FEF725FC031C1C1C0020FEF73AFCCC
:104C1000031C201C191C0022FEF71CFB27E0184B6C
:104C20001B78DBB2012B0ED10120FEF711FC031C17
:104C30001C1C0120FEF726FC031C201C191C002252
:104C4000FEF708FB12E00E4B1B78DBB2002B0DD1F8
:104C50000020FEF7FDFB031C1C1C0020FEF712FCCD
:104C6000031C201C191C0022FEF7F4FAC046BD46A6
:104C700098BDC046100100203D0000203C000020EF
:104C80003E00002080B500AF06200021FDF782FF26
:104C900001220D23101C191CFFF714FE031E06D160
:104CA0000A4B01221A700A4B00221A7005E0074BCA
:104CB00002221A70064B01221A70FFF73FFF0620EE
:104CC000FEF72CF9C046BD4680BDC046100100204D
:104CD0003F00002080B582B000AF224B1B78DBB2D2
:104CE000181CFFF77DF9031C1A1C1E4B1A701D4B74
:104CF0001B78DBB2012B23D11B4B181CFEF750FF96
:104D00001A4B00221A7001220E23101C191CFFF7E7
:104D1000D9FD021CFB1D1A70FB1D1B78002B07D14F
:104D2000134B181CFEF73CFF124B00221A7015E0C3
:104D3000114B181CFEF734FF0E4B01221A700DE0C8
:104D40000E4B181CFEF72CFF0D4B181CFEF728FF0E
:104D5000064B01221A70074B02221A70C046BD464C
:104D600002B080BD10010020A46B00003F000020B5
:104D7000C06B00003D000020E06B0000FC6B0000F9
:104D80001C6C000090B583B000AF414B9B6C002BB6
:104D900000D179E03E4B1A6CFB1D3D498A5C1A70CC
:104DA0003B4B1B6C01333F221A40394B1A64384B82
:104DB0009B6C5A1E364B9A64FB1D1B78354A101C9F
:104DC000191CFEF7EDFEFB1D1B78A03B072B57D8E7
:104DD0009A00314BD3181B689F46304B181CFEF7C6
:104DE000DFFE2F4B1B784EE02E4B181CFEF7D8FE33
:104DF0002D4B1B78DBB2002B0ED0FEF765FD2A4B46
:104E000000221A70284B00225A70274B00229A70F9
:104E1000254B0322DA7036E035E001200021002224
:104E2000FEF718FA2FE0012001210022FEF712FA06
:104E300029E0022000210022FEF70CFA23E00220E4
:104E400001210022FEF706FA1DE00520FEF700FB17
:104E5000031C1C1C0520FEF715FB031C201C191C41
:104E60000122FEF7F7F90020FFF794F80F4B00221C
:104E70001A700F4B03221A708C20FEF71BFF02E002
:104E8000C04600E0C046C046BD4603B090BDC04627
:104E900034010020406C0000F06F0000546C0000F2
:104EA000110100207C6C0000140100202C01002066
:104EB0003100002080B500AF04220C23101C191C07
:104EC00000220023FCF7F2FA04220B23101C191C09
:104ED00000220023FCF7EAFA03220723101C191C06
:104EE00000220023FCF7E2FA054B04221A70054B5E
:104EF00004221A70044B04221A70BD4680BDC046BD
:104F000030000020310000203300002080B500AFC9
:104F1000124B1B78DBB2012B13D18820FEF7CAFE9F
:104F20000F4B181CFEF73CFE0E4B1B78DBB2012B1F
:104F300003D18620FEF7BEFE0DE08520FEF7BAFE07
:104F400009E0094B181CFEF72BFE8920FEF7B2FE84
:104F50008420FEF7AFFEBD4680BDC0461001002094
:104F6000A06C00003D000020C06C000080B582B045
:104F700000AFFDF701FA031C7B607B68002B02DDAC
:104F80001A4B7A681A601A4B1B78DBB2181CFDF7B3
:104F900035FA031C1A1C164B1A70154B1B78DBB222
:104FA0001A1C0423134003D08220FEF783FE14E072
:104FB0000F4B1B78DBB21A1C0223134003D087204F
:104FC000FEF778FE09E00A4B1B78DBB21A1C0123BE
:104FD000134002D08320FEF76DFE044B1B68DBB24A
:104FE000181CFEF767FEBD4602B080BD30010020F0
:104FF0003C00002080B500AF064B1B78DBB2002BD5
:1050000003D18020FEF756FE02E08120FEF752FE1B
:10501000BD4680BD3B00002098B500AF274B1B78F4
:10502000DBB2022B3AD1264B1B78DBB21A1C0423CD
:1050300013400ED00420FEF70BFA031C1C1C0420A6
:10504000FEF720FA031C201C191C0022FEF702F9AF
:1050500032E01B4B1B78DBB21A1C022313400ED02C
:105060000320FEF7F5F9031C1C1C0320FEF70AFAC7
:10507000031C201C191C0022FEF7ECF81CE0012088
:10508000FEF7E6F9031C1C1C0120FEF7FBF9031CCC
:10509000201C191C0022FEF7DDF80DE00120FEF7B0
:1050A000D7F9031C1C1C0120FEF7ECF9031C201C83
:1050B000191C0022FEF7CEF8BD4698BD1001002055
:1050C0003C00002080B500AF0023181CBD4680BD09
:1050D00080B500AFFA235B00181CFDF707FB00202A
:1050E000FCF79CF80020FEF7EFFC034B181CFEF7C2
:1050F00057FDBD4680BDC046E46C000080B500AFE2
:10510000084B1B78DBB21A1C0223134006D0064B57
:105110001B78DBB2022B01D1012300E00023181C15
:10512000BD4680BD3C0000201001002080B500AFCE
:10513000074BDB78DBB2022B06D1054B1B78DBB2C9
:10514000002B01D0012300E00023181CBD4680BDC8
:105150001401002080B582B000AFFFF79FFB031C55
:105160007B600C231A1C012393401A1C7B6813409C
:1051700009D00C231A1C01239340181CFFF780FB55
:105180000B4B02221A700E231A1C012393401A1C87
:105190007B68134009D00E231A1C01239340181C6E
:1051A000FFF76EFB034B02221A70BD4602B080BDB2
:1051B000300000203200002080B582B000AFFFF741
:1051C0006DFB031C7B6007231A1C012393401A1CF0
:1051D0007B68134009D007231A1C01239340181C35
:1051E000FFF74EFB144B02221A700B231A1C0123EB
:1051F00093401A1C7B68134009D00B231A1C01230F
:105200009340181CFFF73CFB0C4B02221A700D2335
:105210001A1C012393401A1C7B68134009D00D23EC
:105220001A1C01239340181CFFF72AFB044B02228F
:105230001A70BD4602B080BD33000020310000204E
:105240003500002090B583B000AF194B181CFFF754
:105250008DFB031C7B607B680422134025D0144B1C
:10526000181C0421FFF776FBFC1C114B181CFCF7E3
:1052700005FE031C23700F4B5B6C0E4AF91C09786A
:10528000D1540C4B5B6C01333F221A40094B5A64DA
:10529000084B9B6C5A1C074B9A64064B9B6C402B2B
:1052A00003D9044B4C2201219954BD4603B090BD53
:1052B000004008403401002080B582B000AFFFF705
:1052C0003FFB031C7B607B680122134003D001205D
:1052D000FFF72AFB50E07B68022213404CD00220EB
:1052E000FFF722FB264B02221A70264B1B685A1C22
:1052F000244B1A60244B1B685A1C234B1A60234B07
:105300001B685A1C214B1A60214B1B781A1C022364
:10531000134004D01F4B1B685A1C1E4B1A601A4BBB
:105320001A681D4B1B685A431C4B1B689A4205D3D5
:10533000154B00221A601A4B02221A70154B1A687C
:10534000154B1B685A43174B1B689A4205D3114BE8
:1053500000221A60144B02221A700C4B1A680E4B72
:105360001B685A43114B1B689A4205D3074B002216
:105370001A600F4B02221A70BD4602B080BDC046B3
:105380003A000020280100201C01002024010020F8
:105390004000002020010020500000204800002094
:1053A0003400002044000020380000204C00002081
:1053B0003700002080B582B000AF164B181CFFF7F5
:1053C000EBFA031C7B607B68012213401ED0114B5B
:1053D000181C0121FFF7D4FA0F4B1B78DBB2002B0E
:1053E00014D00D4B9B78DBB20133DAB20A4B9A70C2
:1053F000094B9B78DAB2084B5B78DBB29A4205D353
:10540000054B0222DA70044B00229A70BD4602B0AE
:1054100080BDC046000001401401002080B582B06C
:1054200000AF0A4B181CFFF7B7FA031C7B607B68C0
:105430000122134006D0054B181C0121FFF7A0FAEA
:10544000FDF7EEFFBD4602B080BDC046000401403E
:1054500080B582B000AF094B181CFFF7B3FA031CEC
:105460007B607B680122134004D0044B181C01218F
:10547000FFF79CFABD4602B080BDC0460020004048
:1054800080B500AF474B181C0121FBF737FB464B9B
:10549000181C0121FBF732FB444B181C0021FBF7C1
:1054A0002DFB434B181C0021FBF728FB414B181C1C
:1054B0000021FBF723FB0020FEF706FBFFF78CFA29
:1054C00014200121FDF766FBFEF750FD1520002199
:1054D000FDF760FB05200021FDF75CFB0A200021A1
:1054E000FDF758FB06200021FDF754FB07200021A3
:1054F000FDF750FB0120FDF74DFD0120FDF75CFDA0
:1055000017200021FDF746FB10200021FDF742FB8C
:1055100013200021FDF73EFB12200021FDF73AFB8E
:10552000254B04221A70254B04221A70244B0422A6
:105530001A70244B03221A700B200121FDF72AFB5D
:10554000FDF7BCF8204B1B78181CFCF7B9FE031EB6
:1055500006D01E4A1E4B101C191C5422FEF720FBBD
:105560001C4B1B68032004211A1CFDF7EDFF1120C2
:105570000021FDF70FFB19200021FDF70BFBFFF7C2
:1055800075FAFFF77FFB144B1B78DBB2181CFCF796
:1055900035FF031C1A1C104B1A70FFF73DFDC04667
:1055A000BD4680BD408104000072040000820400FA
:1055B000000302000013020033000020300000202E
:1055C000310000203200002019010020006D000091
:1055D000286D0000500000203C00002080B582B003
:1055E00000AF154B181CFEF7DBFAFB1D00221A70EA
:1055F000124B03221A70124B05221A70114B002213
:105600001A70FB1D1B78181CFEF782FCFEF7ACFA23
:10561000FFF77CFC0C4B1B78DBB2042B03D1102072
:105620000021FDF7B7FA1020FDF778FC0323181CC2
:10563000BD4602B080BDC046586D0000320000205B
:10564000110100203E0000203300002080B500AF93
:10565000FFF730FC094B00221A70FFF739FD084BA9
:105660001B78DBB2022B04D1054B03221A700623F0
:1056700000E00023181CBD4680BDC0461801002074
:105680003200002080B582B000AF274B181CFEF717
:1056900087FAFB1D02221A70244B01221A70244B38
:1056A0001B781A1C0123134021D0224B03221A70AD
:1056B000214B00221A60214B1B78DBB2012B07D152
:1056C0001F4B181CFEF76CFA1A4B04221A700EE0DE
:1056D0001C4B181CFEF764FA1320FDF71FFC642016
:1056E000FDF77EF8031E02D0FB1D04221A70104B3A
:1056F0001B781A1C0223134010D0134B181CFEF702
:105700004FFA124B1B78DBB2022B01D1052307E0C5
:105710000E4B03221A701220FDF700FCFB1D1B78B4
:10572000181CBD4602B080BD7C6D00001801002031
:10573000400000203000002028010020110100203E
:10574000A06D0000BC6D0000D86D0000310000208D
:1057500080B500AF574B1B781A1C0123134007D0AC
:10576000554B1B78DBB2042B04D0FFF7B1FC01E0F2
:10577000FFF7AEFC514B1B78DBB2022B08D1504B2C
:10578000181CFEF70DFA4D4B03221A70FFF7AAF909
:105790004C4B1B78DBB2022B04D14A4B03221A700C
:1057A000FFF798FA484B1B78DBB2022B11D1464B1E
:1057B00003221A70454B1B78DBB2181CFCF71EFE47
:1057C000031C1A1C414B1A70FCF7D6FD021C404BFF
:1057D0001A60404B1B78DBB2022B04D13D4B0322F5
:1057E0001A70FFF7ABF9FFF76DFC031E01D0092318
:1057F0005CE0394B02221A70FFF780FC031E01D0D7
:10580000082353E0354B1B78DBB2022B08D1344B15
:10581000181CFEF7C5F9314B03221A70062345E028
:10582000304B1B78DBB2022B03D0FFF77FFC031E4B
:1058300005D02D4B181CFEF7B3F9052336E01E4B9F
:105840001B78DBB2042B1DD1284B1B68022B19D906
:10585000184B1B781A1C0123134013D0234B002232
:105860001A60154B03221A70214B181CFEF798F989
:105870001320FDF753FB6420FCF7B2FF031E01D099
:10588000042313E00C4B1B78DBB2022B0DD1194B18
:10589000181CFEF785F96420FCF7A2FF031E01D057
:1058A000042303E0044B03221A700223181CBD4694
:1058B00080BDC0464000002030000020380000209D
:1058C000F46D000035000020340000203C00002072
:1058D0003001002037000020390000203200002075
:1058E0000C6E000031000020246E00002801002012
:1058F000406E00005C6E000080B500AF5A4B1B7814
:105900001A1C012313401BD0584B1B78DBB2022B0F
:1059100016D1564B03221A706420FCF761FF031E58
:1059200007D0534B00221A70524B181CFEF738F95F
:1059300006E04F4B01221A704F4B181CFEF730F94E
:10594000494B1B781A1C0223134013D04B4B1B7876
:10595000DBB2022B0ED1FEF761FB031E012B03D13C
:105960008B20FEF7A7F902E08A20FEF7A3F9434B4C
:1059700003221A70424B1B78DBB2022B04D1404B3E
:1059800003221A70FFF736FB3E4B1B78DBB2022B6B
:1059900006D13C4B03221A70FFF79CF9FFF7B6FAC9
:1059A000394B1B78DBB2022B13D1374B03221A7011
:1059B000364B1B78DBB2002B03D18520FEF77AF93A
:1059C00007E0324B1B78DBB2012B02D18620FEF7B9
:1059D00071F92F4B1B78DBB2022B04D12C4B032225
:1059E0001A70FFF7C3FA2B4B1B78DBB2022B04D1E2
:1059F000284B03221A70FFF7A1F803220723101C7B
:105A0000191CFEF75FFF031E012B04D0224B1B78ED
:105A1000DBB2022B22D13220FCF768FE03220723DF
:105A2000101C191CFEF74EFF031E09D11A4B03224E
:105A30001A700020FEF7AEFA0120FEF7ABFA0DE077
:105A4000094B1B781A1C0123134005D01320FDF7C6
:105A500089FA064B03221A70072302E0FFF792F936
:105A60000323181CBD4680BD4000002030000020EC
:105A70003B000020746E0000886E000031000020A2
:105A80003A00002035000020360000203D000020B4
:105A900034000020370000203300002080B500AF24
:105AA0000E4B181CFEF77CF80D4B01221A700D4BA3
:105AB00002221A700C4B00221A600420FEF728FA0A
:105AC000C820FCF713FEFEF74FF8FFF71FFA10206F
:105AD000FDF724FA0323181CBD4680BD9C6E000010
